:020000040800F2
:1000000000000320C52500083D2500084B250008F9
:1000100051250008572500085D2500080000000054
:100020000000000000000000000000006325000840
:1000300071250008000000007F2500088D250008BC
:1000400015260008152600081526000815260008A4
:100050001526000815260008152600081526000894
:100060001526000815260008152600081526000884
:100070001526000815260008152600081526000874
:100080001526000815260008152600081526000864
:100090001526000815260008152600081526000854
:1000A0001526000815260008152600081526000844
:1000B0001526000815260008152600081526000834
:1000C0001526000815260008152600081526000824
:1000D0001526000815260008152600081526000814
:1000E0001526000815260008152600081526000804
:1000F00015260008152600081526000815260008F4
:1001000015260008152600081526000815260008E3
:1001100015260008152600081526000815260008D3
:1001200015260008152600081526000815260008C3
:1001300015260008152600081526000815260008B3
:1001400015260008152600081526000815260008A3
:100150001526000815260008152600081526000893
:100160001526000815260008152600081526000883
:1001700015260008152600081526000800000000B6
:100180001526000815260008152600081526000863
:100190001526000815260008152600081526000853
:0C01A0001526000815260008152600088A
:1001AC0010B5054C237833B9044B13B10448AFF3A5
:1001BC0000800123237010BD2C00002000000000E3
:1001CC007026000808B5034B1BB103490348AFF375
:1001DC00008008BD000000003000002070260008E0
:1001EC0053B94AB9002908BF00281CBF4FF0FF3192
:1001FC004FF0FF3000F07AB9ADF1080C6DE904CE88
:10020C0000F006F8DDF804E0DDE9022304B07047E5
:10021C002DE9F0478C460D460446089E002B51D123
:10022C008A4217466DD9B2FA82FEBEF1000F0BD08E
:10023C00CEF1200C01FA0EF520FA0CFC02FA0EF7A6
:10024C004CEA050C00FA0EF44FEA174A250CBCFBDD
:10025C00FAF81FFA87F90AFB18CC45EA0C4508FB9B
:10026C0009F3AB420AD9ED1908F1FF3280F0238172
:10027C00AB4240F22081A8F102083D44ED1AA4B231
:10028C00B5FBFAF00AFB105544EA054400FB09F9EA
:10029C00A14509D9E41900F1FF3380F00A81A14589
:1002AC0040F2078102383C44A4EB090440EA0840C0
:1002BC000021002E61D024FA0EF400233460736008
:1002CC00BDE8F0878B4207D9002E54D0002186E878
:1002DC0021000846BDE8F087B3FA83F1002940F00D
:1002EC008E80AB4202D3824200F2FA80841A65EB14
:1002FC0003050120AC46002E3FD086E81010BDE867
:10030C00F08712B90127B7FBF2F7B7FA87FEBEF1F7
:10031C00000F34D1EB1B3A0C1FFA87FC0121B3FB05
:10032C00F2F8250C02FB183345EA03450CFB08F3E5
:10033C00AB4207D9ED1908F1FF3002D2AB4200F203
:10034C00D1808046ED1AA3B2B5FBF2F002FB10553A
:10035C0043EA05440CFB00FCA44507D9E41900F161
:10036C00FF3302D2A44500F2B8801846A4EB0C046B
:10037C0040EA08409DE731463046BDE8F087CEF1B3
:10038C00200405FA0EF307FA0EF720FA04F83A0CDB
:10039C0025FA04F448EA0308B4FBF2F14FEA1845D5
:1003AC0002FB11441FFA87FC45EA044501FB0CF3E0
:1003BC00AB4200FA0EF409D9ED1901F1FF3080F0CF
:1003CC008A80AB4240F2878002393D44EB1A1FFA17
:1003DC0088F5B3FBF2F002FB103345EA034500FB52
:1003EC000CF3AB4207D9ED1900F1FF386FD2AB42D9
:1003FC006DD902383D44EB1A40EA01418FE7C1F157
:10040C00200722FA07F88B4005FA01F448EA0303A7
:10041C0020FA07FE4FEA134CFD404EEA040EB5FBE2
:10042C00FCF94FEA1E440CFB19551FFA83F844EAF9
:10043C00054509FB08F4AC4202FA01F200FA01FA94
:10044C0008D9ED1809F1FF3043D2AC4241D9A9F1DA
:10045C0002091D442D1B1FFA8EFEB5FBFCF00CFB94
:10046C0010554EEA054400FB08F8A04507D9E418DE
:10047C0000F1FF3529D2A04527D902381C4440EAA7
:10048C000940A4EB0804A0FB02894C45C6464D4626
:10049C0015D312D056B1BAEB0E0364EB050404FA73
:1004AC0007F7CB401F43CC40376074600021BDE898
:1004BC00F0871846F8E69046E0E6C245EAD2B8EB7B
:1004CC00020E69EB03050138E4E72846D7E74046FE
:1004DC0091E78146BEE7014678E702383C4445E7A0
:1004EC00084608E7A8F102083D442BE7704700BF17
:1004FC0080B500AF0E4A0E4B1B6843F400731360BB
:10050C000B4A0B4B1B6843F480631360084A084B7F
:10051C001B6843F480731360032000F02DF9002056
:10052C0000F008F801F094FF0023184680BD00BFCE
:10053C00003C024080B582B000AF7860124B1A6864
:10054C00124B1B7819464FF47A73B3FBF1F3B2FBE1
:10055C00F3F3184600F037F90346002B01D00123C2
:10056C000EE07B680F2B0AD8002279684FF0FF3021
:10057C0000F00DF9064A7B681360002300E00123AC
:10058C0018460837BD4680BD280000200400002016
:10059C000000002080B400AF064B1B781A46064BB7
:1005AC001B681344044A136000BFBD465DF8047B0E
:1005BC00704700BF040000204800002080B400AF4A
:1005CC00034B1B681846BD465DF8047B704700BFA3
:1005DC004800002080B584B000AF7860FFF7EEFFD4
:1005EC00B8607B68FB60FB68B3F1FF3F05D0094B3B
:1005FC001B781A46FB681344FB6000BFFFF7DEFF55
:10060C000246BB68D21AFB689A42F7D300BF103778
:10061C00BD4680BD0400002080B485B000AF78607A
:10062C007B6803F00703FB600C4BDB68BB60BA68AC
:10063C004FF6FF031340BB60FB681A02BB68134301
:10064C0043F0BF6343F40033BB60044ABB68D36020
:10065C0000BF1437BD465DF8047B704700ED00E029
:10066C0080B400AF044BDB681B0A03F00703184689
:10067C00BD465DF8047B704700ED00E080B483B0AC
:10068C0000AF03463960FB7197F90730002B0ADB8A
:10069C000D4997F907303A68D2B21201D2B20B4425
:1006AC0083F800230AE00949FB7903F00F03043BAC
:1006BC003A68D2B21201D2B20B441A7600BF0C3790
:1006CC00BD465DF8047B704700E100E000ED00E002
:1006DC0080B489B000AFF860B9607A60FB6803F051
:1006EC000703FB61FB69C3F10703042B28BF042339
:1006FC00BB61FB690433062B02D9FB69033B00E0A9
:10070C0000237B610122BB6902FA03F35A1EBB680A
:10071C001A407B699A4001217B6901FA03F3591E47
:10072C007B680B40134318462437BD465DF8047BA9
:10073C007047000080B582B000AF78607B68013BE9
:10074C00B3F1807F01D301230FE00A4A7B68013BA0
:10075C0053600F214FF0FF30FFF790FF054B002245
:10076C009A60044B07221A60002318460837BD46CE
:10077C0080BD00BF10E000E080B582B000AF7860B3
:10078C007868FFF749FF00BF0837BD4680BD80B5CC
:10079C0086B000AF0346B9607A60FB7300237B61BF
:1007AC00FFF75EFF78617A68B9687869FFF790FFA8
:1007BC00024697F90F3011461846FFF75FFF00BF4E
:1007CC001837BD4680BD80B582B000AF78607868C0
:1007DC00FFF7B0FF034618460837BD4680BD000042
:1007EC0080B489B000AF7860396000237B6100234E
:1007FC003B610023BB610023FB6177E10122FB69B4
:10080C0002FA03F37B613B681A687B6913403B6116
:10081C003A697B699A4240F066813B685B68012BC0
:10082C000BD03B685B68022B07D03B685B68112BD5
:10083C0003D03B685B68122B30D17B689B68BB6133
:10084C00FB695B00032202FA03F3DB43BA69134032
:10085C00BB613B68DA68FB695B0002FA03F3BA69B7
:10086C001343BB617B68BA699A607B685B68BB6148
:10087C000122FB6902FA03F3DB43BA691340BB6143
:10088C003B685B681B0903F00102FB6902FA03F386
:10089C00BA691343BB617B68BA695A607B68DB68D1
:1008AC00BB61FB695B00032202FA03F3DB43BA6909
:1008BC001340BB613B689A68FB695B0002FA03F367
:1008CC00BA691343BB617B68BA69DA603B685B68E1
:1008DC00022B03D03B685B68122B23D1FB69DA082F
:1008EC007B68083253F82230BB61FB6903F00703C5
:1008FC009B000F2202FA03F3DB43BA691340BB617E
:10090C003B681A69FB6903F007039B0002FA03F3C7
:10091C00BA691343BB61FB69DA087B680832B969B1
:10092C0043F822107B681B68BB61FB695B000322E8
:10093C0002FA03F3DB43BA691340BB613B685B68A3
:10094C0003F00302FB695B0002FA03F3BA69134379
:10095C00BB617B68BA691A603B685B6803F08053C3
:10096C00002B00F0C0800023FB60654A644B5B6C7D
:10097C0043F480435364624B5B6C03F48043FB6031
:10098C00FB68604AFB699B08023352F82330BB6159
:10099C00FB6903F003039B000F2202FA03F3DB4312
:1009AC00BA691340BB617B68574A934237D07B6866
:1009BC00564A934231D07B68554A93422BD07B6880
:1009CC00544A934225D07B68534A93421FD07B688C
:1009DC00524A934219D07B68514A934213D07B6898
:1009EC00504A93420DD07B684F4A934207D07B68A4
:1009FC004E4A934201D1092312E00A2310E0082346
:100A0C000EE007230CE006230AE0052308E004238C
:100A1C0006E0032304E0022302E0012300E00023AC
:100A2C00FA6902F0030292009340BA691343BB6166
:100A3C003449FB699B080233BA6941F823203C4BCB
:100A4C001B68BB613B69DB43BA691340BB613B6804
:100A5C005B6803F48033002B03D0BA693B69134302
:100A6C00BB61334ABB691360314B5B68BB613B694B
:100A7C00DB43BA691340BB613B685B6803F400332A
:100A8C00002B03D0BA693B691343BB61284ABB698D
:100A9C005360274B9B68BB613B69DB43BA691340CE
:100AAC00BB613B685B6803F48013002B03D0BA690D
:100ABC003B691343BB611E4ABB6993601C4BDB68EB
:100ACC00BB613B69DB43BA691340BB613B685B6844
:100ADC0003F40013002B03D0BA693B691343BB61C9
:100AEC00134ABB69D360FB690133FB61FB690F2BB4
:100AFC007FF684AE00BF2437BD465DF8047B70479B
:100B0C00003802400038014000000240000402405E
:100B1C0000080240000C0240001002400014024089
:100B2C0000180240001C0240002002400024024039
:100B3C00003C014080B483B000AF78600B467B80F2
:100B4C0013467B707B78002B03D07A887B689A6184
:100B5C0003E07B881A047B689A6100BF0C37BD46A2
:100B6C005DF8047B7047000080B582B000AF0023B5
:100B7C007B6000233B60204A1F4B1B6C43F080536F
:100B8C0013641D4B1B6C03F080533B603B681B4B89
:100B9C0001221A60FFF712FD786009E0FFF70EFDE5
:100BAC0002467B68D31AB3F57A7F01D903231FE081
:100BBC00134B5B6803F48033B3F5803FEED1114BDC
:100BCC0001221A60FFF7FAFC786009E0FFF7F6FCE7
:100BDC0002467B68D31AB3F57A7F01D9032307E069
:100BEC00074B5B6803F40033B3F5003FEED10023F1
:100BFC0018460837BD4680BD0038024040000E4202
:100C0C000070004044000E4280B586B000AF7860A2
:100C1C007B68002B01D101235BE27B681B6803F02E
:100C2C000103002B75D0A34B9B6803F00C03042B22
:100C3C000CD0A04B9B6803F00C03082B12D19D4BDE
:100C4C005B6803F48003B3F5800F0BD1994B1B68E1
:100C5C0003F40033002B5BD07B685B68002B57D10F
:100C6C00012336E27B685B68B3F5803F06D1914A7D
:100C7C00904B1B6843F4803313601DE07B685B680A
:100C8C00B3F5A02F0CD18B4A8A4B1B6843F48023FD
:100C9C001360884A874B1B6843F4803313600BE066
:100CAC00844A844B1B6823F480331360814A814B44
:100CBC001B6823F4802313607B685B68002B13D0C4
:100CCC00FFF77CFC386108E0FFF778FC02463B69D3
:100CDC00D31A642B01D90323FBE1764B1B6803F475
:100CEC000033002BF0D014E0FFF768FC386108E00B
:100CFC00FFF764FC02463B69D31A642B01D903232A
:100D0C00E7E16C4B1B6803F40033002BF0D100E0DF
:100D1C0000BF7B681B6803F00203002B63D0654B9C
:100D2C009B6803F00C03002B0BD0624B9B6803F009
:100D3C000C03082B1CD15F4B5B6803F48003002B66
:100D4C0016D15C4B1B6803F00203002B05D07B68AB
:100D5C00DB68012B01D00123BBE15649554B1B68C5
:100D6C0023F0F8027B681B69DB0013430B603AE04D
:100D7C007B68DB68002B20D04F4B01221A60FFF7F9
:100D8C001DFC386108E0FFF719FC02463B69D31AD9
:100D9C00022B01D903239CE1464B1B6803F0020391
:100DAC00002BF0D04349434B1B6823F0F8027B68BF
:100DBC001B69DB0013430B6015E03F4B00221A60EC
:100DCC00FFF7FCFB386108E0FFF7F8FB02463B69D4
:100DDC00D31A022B01D903237BE1364B1B6803F09A
:100DEC000203002BF0D17B681B6803F00803002B77
:100DFC0030D07B685B69002B16D0304B01221A6017
:100E0C00FFF7DCFB386108E0FFF7D8FB02463B69D3
:100E1C00D31A022B01D903235BE1264B5B6F03F042
:100E2C000203002BF0D015E0244B00221A60FFF7D0
:100E3C00C5FB386108E0FFF7C1FB02463B69D31ADA
:100E4C00022B01D9032344E11A4B5B6F03F002031D
:100E5C00002BF0D17B681B6803F00403002B00F01F
:100E6C00A0800023FB75134B1B6C03F08053002BED
:100E7C000FD10023BB600F4A0E4B1B6C43F0805309
:100E8C0013640C4B1B6C03F08053BB60BB680123D9
:100E9C00FB750B4B1B6803F48073002B21D1084AA4
:100EAC00074B1B6843F480731360FFF787FB3861B3
:100EBC0011E000BF0038024000004742800E47425C
:100ECC0000700040FFF77AFB02463B69D31A022BF5
:100EDC0001D90323FDE0814B1B6803F48073002BC5
:100EEC00F0D07B689B68012B06D17D4A7C4B1B6F35
:100EFC0043F0010313671CE07B689B68052B0CD146
:100F0C00774A774B1B6F43F004031367744A744B97
:100F1C001B6F43F0010313670BE0714A704B1B6F9F
:100F2C0023F0010313676E4A6D4B1B6F23F0040310
:100F3C0013677B689B68002B15D0FFF73FFB38616C
:100F4C000AE0FFF73BFB02463B69D31A41F28832B9
:100F5C00934201D90323BCE0614B1B6F03F00203E6
:100F6C00002BEED014E0FFF729FB38610AE0FFF705
:100F7C0025FB02463B69D31A41F28832934201D9D0
:100F8C000323A6E0564B1B6F03F00203002BEED19C
:100F9C00FB7D012B05D1524A514B1B6C23F0805326
:100FAC0013647B689B69002B00F092804C4B9B6810
:100FBC0003F00C03082B5CD07B689B69022B41D19E
:100FCC00484B00221A60FFF7F9FA386108E0FFF786
:100FDC00F5FA02463B69D31A022B01D9032378E0B8
:100FEC003F4B1B6803F00073002BF0D13C497B682E
:100FFC00DA697B681B6A1A437B685B6A9B011A433C
:10100C007B689B6A5B08013B1B041A437B68DB6AA9
:10101C001B0613434B60334B01221A60FFF7CEFAC9
:10102C00386108E0FFF7CAFA02463B69D31A022B73
:10103C0001D903234DE02A4B1B6803F00073002BEE
:10104C00F0D045E0274B00221A60FFF7B7FA386161
:10105C0008E0FFF7B3FA02463B69D31A022B01D919
:10106C00032336E01E4B1B6803F00073002BF0D1FA
:10107C002EE07B689B69012B01D1012329E0184BE1
:10108C009B68FB60FB6803F480027B68DB699A4217
:10109C001CD1FB6803F03F027B681B6A9A4215D196
:1010AC00FA6847F6C07313407A68526A93420DD1BE
:1010BC00FB6803F440327B689B6A9A4206D1FB685A
:1010CC0003F070627B68DB6A9A4201D0012300E076
:1010DC00002318461837BD4680BD00BF0070004085
:1010EC00003802406000474280B584B000AF7860A1
:1010FC0039607B68002B01D10123CCE0684B1B6865
:10110C0003F00F023B689A420CD2654B3A68D2B29C
:10111C001A70634B1B6803F00F023B689A4201D0B4
:10112C000123B8E07B681B6803F00203002B20D07E
:10113C007B681B6803F00403002B05D0594A594BFC
:10114C009B6843F4E05393607B681B6803F00803CF
:10115C00002B05D0534A534B9B6843F46043936078
:10116C005049504B9B6823F0F0027B689B681343FB
:10117C008B607B681B6803F00103002B44D07B68F9
:10118C005B68012B07D1474B1B6803F40033002B22
:10119C0019D101237FE07B685B68022B03D07B684D
:1011AC005B68032B07D13F4B1B6803F00073002BCC
:1011BC0009D101236FE03B4B1B6803F00203002BAA
:1011CC0001D1012367E03749364B9B6823F00302BA
:1011DC007B685B6813438B60FFF7F0F9F8600AE0FB
:1011EC00FFF7ECF90246FB68D31A41F288329342BE
:1011FC0001D903234FE02B4B9B6803F00C027B6857
:10120C005B689B009A42EBD1254B1B6803F00F02E5
:10121C003B689A420CD9224B3A68D2B21A70204BD6
:10122C001B6803F00F023B689A4201D0012332E0A5
:10123C007B681B6803F00403002B08D01949194B79
:10124C009B6823F4E0527B68DB6813438B607B68FC
:10125C001B6803F00803002B09D01249114B9B6843
:10126C0023F460427B681B69DB0013438B6000F046
:10127C0021F801460B4B9B681B0903F00F030A4A2C
:10128C00D35C21FA03F3094A1360094B1B68184617
:10129C00FFF750F9002318461037BD4680BD00BF3C
:1012AC00003C02400038024088260008280000203C
:1012BC00000000202DE9F04F87B000AF0022FA604B
:1012CC0000227A610022BA6000223A61514A926887
:1012DC0002F00C02042A07D0082A08D0002A40F099
:1012EC0090804D4B3B618FE04C4B3B618CE0494A0D
:1012FC00526802F03F02FA60464A526802F48002D9
:10130C00002A23D0434B5B689B094FF0000440F24A
:10131C00FF114FF0000203EA010304EA02043F4A02
:10132C0002FB04F1002202FB03F20A443B49A3FB3B
:10133C00010153181946FB684FF000041A46234666
:10134C00FEF74EFF03460C467B614CE0314A526877
:10135C00920911464FF0000240F2FF154FF00006C3
:10136C0005EA010506EA0206294632464FEA421B07
:10137C004BEAD16B4FEA411A51465A46AA46B3463C
:10138C0055465E464D1B62EB0606294632469401D5
:10139C0044EA91648B015B1A64EB02044FEAC409C2
:1013AC0049EA53794FEAC30843464C4655465E46D4
:1013BC00ED1846EB04062B463446A2027A607A6896
:1013CC0042EA93527A609B023B6097E818001846F9
:1013DC002146FB684FF000041A462346FEF700FF37
:1013EC0003460C467B610B4B5B681B0C03F0030341
:1013FC0001335B00BB607A69BB68B2FBF3F33B6102
:10140C0002E0054B3B6100BF3B6918461C37BD46EB
:10141C00BDE8F08F003802400024F40040787D01D4
:10142C0080B582B000AF78607B68002B01D10123BE
:10143C0055E07B6800229A627B6893F85130DBB2EE
:10144C00002B06D17B68002283F85020786801F0CD
:10145C0027F87B68022283F851207B681B687A6826
:10146C001268126822F040021A607B681B687A6866
:10147C0051687A68926811437A68D26811437A6825
:10148C00126911437A68526911437A68926902F4BD
:10149C00007211437A68D26911437A68126A114357
:1014AC007A68926A0A431A607B681B687A68926948
:1014BC00120C02F004017A68526A0A435A607B6883
:1014CC001B687A681268D26922F40062DA617B6860
:1014DC0000225A657B68012283F8512000231846AC
:1014EC000837BD4680BD80B58CB000AFF860B960E0
:1014FC007A607B800123FB62002387F82B30FB682A
:10150C0093F85030012B01D1022388E1FB680122B2
:10151C0083F85020FFF752F87862FB6893F851304B
:10152C0087F82330FB685B68FB617B887B8397F8CB
:10153C002330012B0FD0FB69B3F5827F07D1FB68F9
:10154C009B68002B03D197F82330042B03D0022384
:10155C0087F82B3059E1BB68002B05D07B68002B3A
:10156C0002D07B88002B03D1012387F82B304CE170
:10157C00FB6893F85130DBB2042B03D0FB680522D7
:10158C0083F85120FB6800225A65FB687A689A63DD
:10159C00FB687A88DA87FB687A889A87FB68BA686E
:1015AC001A63FB687A88DA86FB687A889A86FB6805
:1015BC0000221A64FB6800225A64FB681B681B68D3
:1015CC0003F04003402B07D0FB681B68FA681268D5
:1015DC00126842F040021A60FB68DB68B3F5006FDA
:1015EC0078D1FB685B68002B02D07B8B012B66D11A
:1015FC00FB681B68FA68126B1288DA60FB681B6B5D
:10160C009A1CFB681A63FB68DB8E9BB2013B9AB297
:10161C00FB68DA8653E0FB681B689B6803F00203E7
:10162C00022B1BD1FB68DB8E9BB2002B16D0FB6A06
:10163C00012B13D1FB681B68FA68126B1288DA60F5
:10164C00FB681B6B9A1CFB681A63FB68DB8E9BB2F6
:10165C00013B9AB2FB68DA860023FB62FB681B68CD
:10166C009B6803F00103012B19D1FB68DB8F9BB244
:10167C00002B14D0FB689B6BFA681268D26892B28C
:10168C001A80FB689B6B9A1CFB689A63FB68DB8F68
:10169C009BB2013B9AB2FB68DA870123FB62FEF72F
:1016AC008DFF02467B6AD21ABB6B9A4207D3BB6B87
:1016BC00B3F1FF3F03D0032387F82B30A5E0FB6881
:1016CC00DB8E9BB2002BA6D1FB68DB8F9BB2002B71
:1016DC00A1D17CE0FB685B68002B02D07B8B012BDB
:1016EC006BD1FB681B680C33FA68126B12781A709A
:1016FC00FB681B6B5A1CFB681A63FB68DB8E9BB286
:10170C00013B9AB2FB68DA8657E0FB681B689B6862
:10171C0003F00203022B1CD1FB68DB8E9BB2002B67
:10172C0017D0FB6A012B14D1FB681B680C33FA68C9
:10173C00126B12781A70FB681B6B5A1CFB681A63CD
:10174C00FB68DB8E9BB2013B9AB2FB68DA86002306
:10175C00FB62FB681B689B6803F00103012B19D12A
:10176C00FB68DB8F9BB2002B14D0FB689B6BFA6879
:10177C001268D268D2B21A70FB689B6B5A1CFB6859
:10178C009A63FB68DB8F9BB2013B9AB2FB68DA87EA
:10179C000123FB62FEF712FF02467B6AD21ABB6B77
:1017AC009A4203D3BB6BB3F1FF3F02D1BB6B002B4F
:1017BC0003D1032387F82B3027E0FB68DB8E9BB229
:1017CC00002BA2D1FB68DB8F9BB2002B9DD17A6AD8
:1017DC00B96BF86800F092F80346002B06D0012391
:1017EC0087F82B30FB6820225A650EE0FB689B685B
:1017FC00002B0AD100237B61FB681B68DB687B61D3
:10180C00FB681B689B687B617B69FB68012283F822
:10181C005120FB68002283F8502097F82B30184693
:10182C003037BD4680BD80B584B000AFF860B9607C
:10183C003B601346FB714CE03B68B3F1FF3F48D073
:10184C00FEF7BCFE0246BB69D21A3B689A4202D232
:10185C003B68002B3DD1FB681B68FA681268526824
:10186C0022F0E0025A60FB685B68B3F5827F11D10D
:10187C00FB689B68B3F5004F04D0FB689B68B3F51D
:10188C00806F07D1FB681B68FA681268126822F037
:10189C0040021A60FB689B6AB3F5005F0FD1FB68CE
:1018AC001B68FA681268126822F400521A60FB680E
:1018BC001B68FA681268126842F400521A60FB68DE
:1018CC00012283F85120FB68002283F85020032367
:1018DC000FE0FB681B689A68BB681A40BB689A42A9
:1018EC000CBF01230023DBB21A46FB799A42A3D129
:1018FC00002318461037BD4680BD000080B588B067
:10190C0002AFF860B9607A601B4B1B681B4AA2FBE4
:10191C0003235B0D4FF47A7202FB03F37B61FB68CC
:10192C005B68B3F5827F12D17B680093BB680022A1
:10193C008021F868FFF777FF0346002B16D0FB6871
:10194C005B6D43F02002FB685A6503230FE07B6953
:10195C00002B0AD07B69013B7B61FB681B689B6891
:10196C0003F08003802BF2D000E000BF0023184668
:10197C001837BD4680BD00BF28000020819F5E1631
:10198C0080B582B000AF00237B605EE001220821AD
:10199C006448FFF7CFF8002204216248FFF7CAF829
:1019AC00002210215F48FFF7C5F8002220215D4876
:1019BC00FFF7C0F80220FEF70DFE0022082159485F
:1019CC00FFF7B8F8012204215648FFF7B3F80022BC
:1019DC0010215448FFF7AEF8002220215148FFF7A0
:1019EC00A9F80220FEF7F6FD002208214D48FFF76A
:1019FC00A1F8002204214B48FFF79CF8012210218A
:101A0C004848FFF797F8002220214648FFF792F844
:101A1C000220FEF7DFFD002208214248FFF78AF87A
:101A2C00002204213F48FFF785F8002210213D4891
:101A3C00FFF780F8012220213A48FFF77BF80220BB
:101A4C00FEF7C8FD7B6801337B607B68802B9DDDD6
:101A5C0000233B605EE0002208213248FFF76AF861
:101A6C00002204212F48FFF765F8002210212D4891
:101A7C00FFF760F8012220212A48FFF75BF80220CB
:101A8C00FEF7A8FD002208212648FFF753F8002294
:101A9C0004212448FFF74EF8012210212148FFF7BA
:101AAC0049F8002220211F48FFF744F80220FEF7D6
:101ABC0091FD002208211B48FFF73CF8012204216C
:101ACC001848FFF737F8002210211648FFF732F8B4
:101ADC00002220211348FFF72DF80220FEF77AFD93
:101AEC00012208210F48FFF725F8002204210D4898
:101AFC00FFF720F8002210210A48FFF71BF80022FC
:101B0C0020210848FFF716F80220FEF763FD3B681A
:101B1C0001333B603B68802B9DDD00BF0837BD4621
:101B2C0080BD00BF0010024080B500AFFEF7E0FCA6
:101B3C0000F084F800F028F900F0F0F800F02CFC2C
:101B4C004FF47A70FEF746FD01224FF400513548F0
:101B5C00FEF7F0FF00224FF480413248FEF7EAFF17
:101B6C00314800F02DFA0346002B56D12F492E4850
:101B7C0000F03FFA0346002B0ED100224FF4005127
:101B8C002848FEF7D7FF01224FF480412548FEF785
:101B9C00D1FFFFF7F5FE40E02549234800F029FA74
:101BAC000346002B0ED100224FF400511D48FEF7C6
:101BBC00C1FF01224FF480411A48FEF7BBFFFFF72B
:101BCC00DFFE2AE01B49184800F013FA0346002BED
:101BDC000ED100224FF400511248FEF7ABFF012248
:101BEC004FF480410F48FEF7A5FFFFF7C9FE14E044
:101BFC0011490D4800F0FDF90346002B0DD10022D0
:101C0C004FF400510748FEF795FF01224FF4804135
:101C1C000448FEF78FFFFFF7B3FE0A20FEF7DAFC4D
:101C2C0092E700BF00180240A40000202000002012
:101C3C0008000020100000201800002080B594B08F
:101C4C0000AF07F1200330220021184600F002FDFE
:101C5C0007F10C0300221A605A609A60DA601A616C
:101C6C000023BB602B4A2B4B1B6C43F0805313643B
:101C7C00284B1B6C03F08053BB60BB6800237B605C
:101C8C00254A254B1B6843F440431360224B1B68C9
:101C9C0003F440437B607B6802233B620123FB62BD
:101CAC0010233B630223BB630023FB6308233B64C9
:101CBC00B4237B640223BB640423FB6407F120037D
:101CCC001846FEF7A1FF0346002B01D000F0E6F802
:101CDC00FEF74AFF0346002B01D000F0DFF80F237C
:101CEC00FB6002233B6100237B614FF4A053BB617B
:101CFC004FF48053FB6107F10C0305211846FFF7E5
:101D0C00F3F90346002B01D000F0C8F800BF5037A0
:101D1C00BD4680BD003802400070004080B500AF69
:101D2C00174B184A1A60164B4FF482725A60144BB8
:101D3C0000229A60124B0022DA60114B00221A61C9
:101D4C000F4B00225A610E4B4FF400729A610C4BF0
:101D5C001822DA610A4B00221A62094B00225A62DD
:101D6C00074B00229A62064B0A22DA620448FFF7FC
:101D7C0057FB0346002B01D000F090F800BF80BD4C
:101D8C004C0000200030014080B58AB000AF07F154
:101D9C00140300221A605A609A60DA601A610023F8
:101DAC003B613A4A394B1B6B43F001031363374BCE
:101DBC001B6B03F001033B613B690023FB60334A5F
:101DCC00324B1B6B43F002031363304B1B6B03F062
:101DDC000203FB60FB680023BB602C4A2B4B1B6B84
:101DEC0043F010031363294B1B6B03F01003BB6010
:101DFC00BB6800237B60254A244B1B6B43F04003DC
:101E0C001363224B1B6B03F040037B607B68002247
:101E1C0010211F48FEF78EFE00223C211D48FEF7C4
:101E2C0089FE00224FF4C0411B48FEF783FE3C2381
:101E3C007B610123BB610023FB6100233B6207F143
:101E4C00140319461348FEF7CBFC10237B610123C6
:101E5C00BB610023FB6100233B6207F114031946AD
:101E6C000B48FEF7BDFC4FF4C0437B610123BB6103
:101E7C000023FB6100233B6207F11403194606485B
:101E8C00FEF7AEFC00BF2837BD4680BD00380240CF
:101E9C0000000240001002400018024080B400AF65
:101EAC0000BFBD465DF8047B7047000080B586B06E
:101EBC0002AF0346FB71FB793B7307F1080207F194
:101ECC000C010A23009301230348FFF70CFB3B7A18
:101EDC0018461037BD4680BD4C00002080B582B03E
:101EEC0000AF03460A46FB711346BB71002210215A
:101EFC000948FEF71FFEFB791846FFF7D7FFBB79A1
:101F0C001846FFF7D3FF012210210348FEF712FEFB
:101F1C0000BF0837BD4680BD0000024080B584B0CC
:101F2C0000AF0346FB71002210210B48FEF702FEA6
:101F3C00FB791846FFF7BAFF0020FFF7B7FF0346FF
:101F4C00FB73012210210448FEF7F4FDFB7B1846BD
:101F5C001037BD4680BD00BF0000024080B582B086
:101F6C0000AF03460A46FB711346BB71FB795B005D
:101F7C00DBB203F07E03FB71BA79FB79114618468C
:101F8C00FFF7ACFF00BF0837BD4680BD80B584B0FD
:101F9C0000AF0346FB71FB795B005BB203F07E0381
:101FAC005BB263F07F035BB2FB71FB791846FFF702
:101FBC00B5FF0346FB73FB7B18461037BD4680BD4F
:101FCC0080B584B000AF78607968262000F06AF89C
:101FDC000346FB73FB7B002B04D1786800F056F9A9
:101FEC000346FB7300F019FAFB7B18461037BD460D
:101FFC0080BD80B485B000AF786039600023FB737E
:10200C000EE0FB7B7A6813441A78FB7B39680B442F
:10201C001B789A4201D0022306E0FB7B0133FB7351
:10202C00FB7B042BEDD9002318461437BD465DF815
:10203C00047B704780B582B000AF03460A46FB7143
:10204C001346BB71FB791846FFF7A0FF03461A46EF
:10205C00BB791343DAB2FB7911461846FFF77EFFC2
:10206C0000BF0837BD4680BD80B582B000AF0346C7
:10207C000A46FB711346BB71FB791846FFF786FFC6
:10208C0003465AB297F90630DB435BB213405BB29E
:10209C00DAB2FB7911461846FFF760FF00BF08372C
:1020AC00BD4680BD80B586B002AF03463960FB717A
:1020BC0007210D20FFF752FF3B68FA791A7007F1E0
:1020CC000C0300933B68012239680C2000F00FF8D8
:1020DC000346FB73FB7B002B02D1BB89102B01D079
:1020EC000223FB73FB7B18461037BD4680BD90B5B1
:1020FC0087B000AFB9607B600346FB731346BB73BC
:10210C000223FB750023BB7500237B75FB7B0C2B1B
:10211C0007D00E2B00D009E01223BB7510237B7562
:10212C0004E07723BB7530237B7500BFBB7D63F068
:10213C007F03DBB219460220FFF710FF8021042039
:10214C00FFF792FF80210A20FFF774FF0021012086
:10215C00FFF704FF00237B820AE07B8ABA681344F2
:10216C001B7819460920FFF7F9FE7B8A01337B8225
:10217C00BB7B9BB27A8A9A42EFD3FB7B1946012038
:10218C00FFF7ECFEFB7B0C2B03D180210D20FFF71E
:10219C0051FF4FF4FA637B820420FFF7F7FE0346EE
:1021AC003B757B8A013B7B827B8A002B0AD03B7D73
:1021BC0003F00103002B05D13A7D7B7D1340DBB28C
:1021CC00002BE9D080210D20FFF74EFF7B8A002BDE
:1021DC0057D00620FFF7DAFE034603F01B03002B53
:1021EC004DD10023FB753A7DBB7D1340DBB203F070
:1021FC000103002B01D00123FB75FB7B0C2B40D181
:10220C000A20FFF7C3FE03463B750C20FFF7BEFE0A
:10221C00034603F007037B747B7C002B0BD03B7DC8
:10222C00013B9BB2DB009AB27B7C9BB213449AB20B
:10223C00BB6A1A8005E03B7D9BB2DB009AB2BB6A9D
:10224C001A803B7D002B01D101233B753B7D102B6C
:10225C0001D910233B7500237B820AE07B8A7A68C4
:10226C00D4180920FFF792FE034623707B8A0133B2
:10227C007B823B7D9BB27A8A9A42EFD301E00223A8
:10228C00FB75FB7D18461C37BD4690BD80B586B0EE
:10229C0002AF786000237B7300210D20FFF75EFEF8
:1022AC007B6893221A707B68013320221A7007F125
:1022BC000A0300937B68022279680C20FFF717FF52
:1022CC000346FB73FB7B002B18D10023BB7309E087
:1022DC00BB7B7A6813441A787B7B53407B73BB7B44
:1022EC000133BB73BB7B032BF2D9BB7B7A681344E2
:1022FC001B787A7B9A4201D00223FB73FB7B184636
:10230C001037BD4680BD90B587B000AFF8600B4666
:10231C007A60FB7204210520FFF7A6FE80210A20BB
:10232C00FFF788FE0023FB750AE0FB7DFA68134477
:10233C001B7819460920FFF711FEFB7D0133FB7555
:10234C00FA7DFB7A9A42F0D303210120FFF706FEB7
:10235C00FF23FB750520FFF719FE0346BB75FB7DBC
:10236C00013BFB75FB7D002B04D0BB7D03F004030C
:10237C00002BEFD02220FFF709FE03461A467B689C
:10238C001A707B685C1C2120FFF700FE034623704B
:10239C0000BF1C37BD4690BD80B500AF00F020F8E3
:1023AC008D212A20FFF7DAFD3E212B20FFF7D6FDE9
:1023BC001E212D20FFF7D2FD00212C20FFF7CEFD92
:1023CC0070212620FFF7CAFD40211520FFF7C6FD1E
:1023DC003D211120FFF7C2FD00F00AF800BF80BDBF
:1023EC0080B500AF0F210120FFF7B8FD00BF80BD05
:1023FC0080B582B000AF1420FFF7C8FD0346FB7117
:10240C00FB7903F00303002B03D103211420FFF706
:10241C0011FE00BF0837BD4680BD80B584B002AF49
:10242C0050233B7000237B703B469A1C3B46022199
:10243C001846FFF768FF3A463946BB1D0093134612
:10244C0004220C20FFF753FE00BF0837BD4680BDA9
:10245C0080B483B000AF00237B60104A0F4B5B6CE1
:10246C0043F4804353640D4B5B6C03F480437B60FB
:10247C007B6800233B60094A084B1B6C43F080537C
:10248C001364064B1B6C03F080533B603B6800BF2E
:10249C000C37BD465DF8047B704700BF0038024026
:1024AC0080B58AB000AF786007F1140300221A607F
:1024BC005A609A60DA601A617B681B68194A934209
:1024CC002BD100233B61184A174B5B6C43F48053B0
:1024DC005364154B5B6C03F480533B613B690023E5
:1024EC00FB60114A104B1B6B43F0020313630E4B42
:1024FC001B6B03F00203FB60FB6838237B61022338
:10250C00BB610023FB6103233B6205237B6207F164
:10251C00140319460548FEF763F900BF2837BD467A
:10252C0080BD00BF00300140003802400004024072
:10253C0080B400AF00BFBD465DF8047B704780B42B
:10254C0000AFFEE780B400AFFEE780B400AFFEE75B
:10255C0080B400AFFEE780B400AF00BFBD465DF8AD
:10256C00047B704780B400AF00BFBD465DF8047BB0
:10257C00704780B400AF00BFBD465DF8047B704768
:10258C0080B500AFFEF706F800BF80BD80B400AF89
:10259C00084A084BD3F8883043F47003C2F88830EB
:1025AC00044B4FF000629A6000BFBD465DF8047B9F
:1025BC00704700BF00ED00E0DFF834D0002103E0ED
:1025CC000C4B5B58435004310B480C4B42189A424D
:1025DC00F6D30B4A02E0002342F8043B094B9A4223
:1025EC00F9D3FFF7D3FF00F011F8FFF79DFA70470E
:1025FC0000000320A8260008000000202C0000206A
:10260C002C000020AC000020FEE7000070B50D4E41
:10261C000D4CA41BA4100025A54209D10B4E0C4C4B
:10262C0000F020F8A41BA4100025A54205D170BD14
:10263C0056F8253098470135EEE756F8253098477F
:10264C000135F2E7A0260008A0260008A026000805
:10265C00A426000802440346934200D1704703F8B5
:10266C00011BF9E7F8B500BFF8BC08BC9E467047E3
:0C267C00F8B500BFF8BC08BC9E467047D3
:10268800000000000000000001020304060708091A
:0826980084DBFF7F010000005C
:0426A000D10100085C
:0426A400AD0100087C
:1026A800100000000100000096463812FA000000F1
:1026B8008804FAEF99000000EA2B26A344000000E2
:0C26C8003B4836CC890000000024F400E0
:04000005080025C505
:00000001FF
